{
  "contractName": "DigiArtsNFT",
  "abi": [
    {
      "inputs": [
        {
          "internalType": "string",
          "name": "_name",
          "type": "string"
        },
        {
          "internalType": "string",
          "name": "_symbol",
          "type": "string"
        },
        {
          "internalType": "uint256",
          "name": "_royalityFee",
          "type": "uint256"
        },
        {
          "internalType": "address",
          "name": "_artist",
          "type": "address"
        }
      ],
      "stateMutability": "nonpayable",
      "type": "constructor"
    },
    {
      "anonymous": false,
      "inputs": [
        {
          "indexed": true,
          "internalType": "address",
          "name": "owner",
          "type": "address"
        },
        {
          "indexed": true,
          "internalType": "address",
          "name": "approved",
          "type": "address"
        },
        {
          "indexed": true,
          "internalType": "uint256",
          "name": "tokenId",
          "type": "uint256"
        }
      ],
      "name": "Approval",
      "type": "event"
    },
    {
      "anonymous": false,
      "inputs": [
        {
          "indexed": true,
          "internalType": "address",
          "name": "owner",
          "type": "address"
        },
        {
          "indexed": true,
          "internalType": "address",
          "name": "operator",
          "type": "address"
        },
        {
          "indexed": false,
          "internalType": "bool",
          "name": "approved",
          "type": "bool"
        }
      ],
      "name": "ApprovalForAll",
      "type": "event"
    },
    {
      "anonymous": false,
      "inputs": [
        {
          "indexed": true,
          "internalType": "address",
          "name": "previousOwner",
          "type": "address"
        },
        {
          "indexed": true,
          "internalType": "address",
          "name": "newOwner",
          "type": "address"
        }
      ],
      "name": "OwnershipTransferred",
      "type": "event"
    },
    {
      "anonymous": false,
      "inputs": [
        {
          "indexed": false,
          "internalType": "uint256",
          "name": "id",
          "type": "uint256"
        },
        {
          "indexed": true,
          "internalType": "address",
          "name": "owner",
          "type": "address"
        },
        {
          "indexed": false,
          "internalType": "uint256",
          "name": "cost",
          "type": "uint256"
        },
        {
          "indexed": false,
          "internalType": "string",
          "name": "metadataURI",
          "type": "string"
        },
        {
          "indexed": false,
          "internalType": "uint256",
          "name": "timestamp",
          "type": "uint256"
        }
      ],
      "name": "Sale",
      "type": "event"
    },
    {
      "anonymous": false,
      "inputs": [
        {
          "indexed": true,
          "internalType": "address",
          "name": "from",
          "type": "address"
        },
        {
          "indexed": true,
          "internalType": "address",
          "name": "to",
          "type": "address"
        },
        {
          "indexed": true,
          "internalType": "uint256",
          "name": "tokenId",
          "type": "uint256"
        }
      ],
      "name": "Transfer",
      "type": "event"
    },
    {
      "inputs": [
        {
          "internalType": "address",
          "name": "to",
          "type": "address"
        },
        {
          "internalType": "uint256",
          "name": "tokenId",
          "type": "uint256"
        }
      ],
      "name": "approve",
      "outputs": [],
      "stateMutability": "nonpayable",
      "type": "function"
    },
    {
      "inputs": [],
      "name": "artist",
      "outputs": [
        {
          "internalType": "address",
          "name": "",
          "type": "address"
        }
      ],
      "stateMutability": "view",
      "type": "function",
      "constant": true
    },
    {
      "inputs": [
        {
          "internalType": "address",
          "name": "owner",
          "type": "address"
        }
      ],
      "name": "balanceOf",
      "outputs": [
        {
          "internalType": "uint256",
          "name": "",
          "type": "uint256"
        }
      ],
      "stateMutability": "view",
      "type": "function",
      "constant": true
    },
    {
      "inputs": [],
      "name": "cost",
      "outputs": [
        {
          "internalType": "uint256",
          "name": "",
          "type": "uint256"
        }
      ],
      "stateMutability": "view",
      "type": "function",
      "constant": true
    },
    {
      "inputs": [
        {
          "internalType": "uint256",
          "name": "tokenId",
          "type": "uint256"
        }
      ],
      "name": "getApproved",
      "outputs": [
        {
          "internalType": "address",
          "name": "",
          "type": "address"
        }
      ],
      "stateMutability": "view",
      "type": "function",
      "constant": true
    },
    {
      "inputs": [
        {
          "internalType": "uint256",
          "name": "",
          "type": "uint256"
        }
      ],
      "name": "holderOf",
      "outputs": [
        {
          "internalType": "address",
          "name": "",
          "type": "address"
        }
      ],
      "stateMutability": "view",
      "type": "function",
      "constant": true
    },
    {
      "inputs": [
        {
          "internalType": "address",
          "name": "owner",
          "type": "address"
        },
        {
          "internalType": "address",
          "name": "operator",
          "type": "address"
        }
      ],
      "name": "isApprovedForAll",
      "outputs": [
        {
          "internalType": "bool",
          "name": "",
          "type": "bool"
        }
      ],
      "stateMutability": "view",
      "type": "function",
      "constant": true
    },
    {
      "inputs": [],
      "name": "name",
      "outputs": [
        {
          "internalType": "string",
          "name": "",
          "type": "string"
        }
      ],
      "stateMutability": "view",
      "type": "function",
      "constant": true
    },
    {
      "inputs": [],
      "name": "owner",
      "outputs": [
        {
          "internalType": "address",
          "name": "",
          "type": "address"
        }
      ],
      "stateMutability": "view",
      "type": "function",
      "constant": true
    },
    {
      "inputs": [
        {
          "internalType": "uint256",
          "name": "tokenId",
          "type": "uint256"
        }
      ],
      "name": "ownerOf",
      "outputs": [
        {
          "internalType": "address",
          "name": "",
          "type": "address"
        }
      ],
      "stateMutability": "view",
      "type": "function",
      "constant": true
    },
    {
      "inputs": [],
      "name": "renounceOwnership",
      "outputs": [],
      "stateMutability": "nonpayable",
      "type": "function"
    },
    {
      "inputs": [],
      "name": "royalityFee",
      "outputs": [
        {
          "internalType": "uint256",
          "name": "",
          "type": "uint256"
        }
      ],
      "stateMutability": "view",
      "type": "function",
      "constant": true
    },
    {
      "inputs": [
        {
          "internalType": "address",
          "name": "from",
          "type": "address"
        },
        {
          "internalType": "address",
          "name": "to",
          "type": "address"
        },
        {
          "internalType": "uint256",
          "name": "tokenId",
          "type": "uint256"
        }
      ],
      "name": "safeTransferFrom",
      "outputs": [],
      "stateMutability": "nonpayable",
      "type": "function"
    },
    {
      "inputs": [
        {
          "internalType": "address",
          "name": "from",
          "type": "address"
        },
        {
          "internalType": "address",
          "name": "to",
          "type": "address"
        },
        {
          "internalType": "uint256",
          "name": "tokenId",
          "type": "uint256"
        },
        {
          "internalType": "bytes",
          "name": "data",
          "type": "bytes"
        }
      ],
      "name": "safeTransferFrom",
      "outputs": [],
      "stateMutability": "nonpayable",
      "type": "function"
    },
    {
      "inputs": [
        {
          "internalType": "address",
          "name": "operator",
          "type": "address"
        },
        {
          "internalType": "bool",
          "name": "approved",
          "type": "bool"
        }
      ],
      "name": "setApprovalForAll",
      "outputs": [],
      "stateMutability": "nonpayable",
      "type": "function"
    },
    {
      "inputs": [],
      "name": "supply",
      "outputs": [
        {
          "internalType": "uint256",
          "name": "",
          "type": "uint256"
        }
      ],
      "stateMutability": "view",
      "type": "function",
      "constant": true
    },
    {
      "inputs": [
        {
          "internalType": "bytes4",
          "name": "interfaceId",
          "type": "bytes4"
        }
      ],
      "name": "supportsInterface",
      "outputs": [
        {
          "internalType": "bool",
          "name": "",
          "type": "bool"
        }
      ],
      "stateMutability": "view",
      "type": "function",
      "constant": true
    },
    {
      "inputs": [],
      "name": "symbol",
      "outputs": [
        {
          "internalType": "string",
          "name": "",
          "type": "string"
        }
      ],
      "stateMutability": "view",
      "type": "function",
      "constant": true
    },
    {
      "inputs": [
        {
          "internalType": "uint256",
          "name": "index",
          "type": "uint256"
        }
      ],
      "name": "tokenByIndex",
      "outputs": [
        {
          "internalType": "uint256",
          "name": "",
          "type": "uint256"
        }
      ],
      "stateMutability": "view",
      "type": "function",
      "constant": true
    },
    {
      "inputs": [
        {
          "internalType": "address",
          "name": "owner",
          "type": "address"
        },
        {
          "internalType": "uint256",
          "name": "index",
          "type": "uint256"
        }
      ],
      "name": "tokenOfOwnerByIndex",
      "outputs": [
        {
          "internalType": "uint256",
          "name": "",
          "type": "uint256"
        }
      ],
      "stateMutability": "view",
      "type": "function",
      "constant": true
    },
    {
      "inputs": [
        {
          "internalType": "uint256",
          "name": "tokenId",
          "type": "uint256"
        }
      ],
      "name": "tokenURI",
      "outputs": [
        {
          "internalType": "string",
          "name": "",
          "type": "string"
        }
      ],
      "stateMutability": "view",
      "type": "function",
      "constant": true
    },
    {
      "inputs": [],
      "name": "totalSupply",
      "outputs": [
        {
          "internalType": "uint256",
          "name": "",
          "type": "uint256"
        }
      ],
      "stateMutability": "view",
      "type": "function",
      "constant": true
    },
    {
      "inputs": [],
      "name": "totalTx",
      "outputs": [
        {
          "internalType": "uint256",
          "name": "",
          "type": "uint256"
        }
      ],
      "stateMutability": "view",
      "type": "function",
      "constant": true
    },
    {
      "inputs": [
        {
          "internalType": "address",
          "name": "from",
          "type": "address"
        },
        {
          "internalType": "address",
          "name": "to",
          "type": "address"
        },
        {
          "internalType": "uint256",
          "name": "tokenId",
          "type": "uint256"
        }
      ],
      "name": "transferFrom",
      "outputs": [],
      "stateMutability": "nonpayable",
      "type": "function"
    },
    {
      "inputs": [
        {
          "internalType": "address",
          "name": "newOwner",
          "type": "address"
        }
      ],
      "name": "transferOwnership",
      "outputs": [],
      "stateMutability": "nonpayable",
      "type": "function"
    },
    {
      "inputs": [
        {
          "internalType": "string",
          "name": "title",
          "type": "string"
        },
        {
          "internalType": "string",
          "name": "description",
          "type": "string"
        },
        {
          "internalType": "string",
          "name": "metadataURI",
          "type": "string"
        },
        {
          "internalType": "uint256",
          "name": "salesPrice",
          "type": "uint256"
        }
      ],
      "name": "payToMint",
      "outputs": [],
      "stateMutability": "payable",
      "type": "function",
      "payable": true
    },
    {
      "inputs": [
        {
          "internalType": "uint256",
          "name": "id",
          "type": "uint256"
        }
      ],
      "name": "payToBuy",
      "outputs": [],
      "stateMutability": "payable",
      "type": "function",
      "payable": true
    },
    {
      "inputs": [
        {
          "internalType": "uint256",
          "name": "id",
          "type": "uint256"
        },
        {
          "internalType": "uint256",
          "name": "newPrice",
          "type": "uint256"
        }
      ],
      "name": "changePrice",
      "outputs": [
        {
          "internalType": "bool",
          "name": "",
          "type": "bool"
        }
      ],
      "stateMutability": "nonpayable",
      "type": "function"
    },
    {
      "inputs": [],
      "name": "getAllNFTs",
      "outputs": [
        {
          "components": [
            {
              "internalType": "uint256",
              "name": "id",
              "type": "uint256"
            },
            {
              "internalType": "address",
              "name": "owner",
              "type": "address"
            },
            {
              "internalType": "uint256",
              "name": "cost",
              "type": "uint256"
            },
            {
              "internalType": "string",
              "name": "title",
              "type": "string"
            },
            {
              "internalType": "string",
              "name": "description",
              "type": "string"
            },
            {
              "internalType": "string",
              "name": "metadataURI",
              "type": "string"
            },
            {
              "internalType": "uint256",
              "name": "timestamp",
              "type": "uint256"
            }
          ],
          "internalType": "struct DigiArtsNFT.TransactionStruct[]",
          "name": "",
          "type": "tuple[]"
        }
      ],
      "stateMutability": "view",
      "type": "function",
      "constant": true
    },
    {
      "inputs": [
        {
          "internalType": "uint256",
          "name": "id",
          "type": "uint256"
        }
      ],
      "name": "getNFT",
      "outputs": [
        {
          "components": [
            {
              "internalType": "uint256",
              "name": "id",
              "type": "uint256"
            },
            {
              "internalType": "address",
              "name": "owner",
              "type": "address"
            },
            {
              "internalType": "uint256",
              "name": "cost",
              "type": "uint256"
            },
            {
              "internalType": "string",
              "name": "title",
              "type": "string"
            },
            {
              "internalType": "string",
              "name": "description",
              "type": "string"
            },
            {
              "internalType": "string",
              "name": "metadataURI",
              "type": "string"
            },
            {
              "internalType": "uint256",
              "name": "timestamp",
              "type": "uint256"
            }
          ],
          "internalType": "struct DigiArtsNFT.TransactionStruct",
          "name": "",
          "type": "tuple"
        }
      ],
      "stateMutability": "view",
      "type": "function",
      "constant": true
    },
    {
      "inputs": [],
      "name": "getAllTransactions",
      "outputs": [
        {
          "components": [
            {
              "internalType": "uint256",
              "name": "id",
              "type": "uint256"
            },
            {
              "internalType": "address",
              "name": "owner",
              "type": "address"
            },
            {
              "internalType": "uint256",
              "name": "cost",
              "type": "uint256"
            },
            {
              "internalType": "string",
              "name": "title",
              "type": "string"
            },
            {
              "internalType": "string",
              "name": "description",
              "type": "string"
            },
            {
              "internalType": "string",
              "name": "metadataURI",
              "type": "string"
            },
            {
              "internalType": "uint256",
              "name": "timestamp",
              "type": "uint256"
            }
          ],
          "internalType": "struct DigiArtsNFT.TransactionStruct[]",
          "name": "",
          "type": "tuple[]"
        }
      ],
      "stateMutability": "view",
      "type": "function",
      "constant": true
    }
  ],
  "bytecode": "0x60806040526000600f556000601055662386f26fc100006011553480156200002657600080fd5b50604051620058ee380380620058ee83398181016040528101906200004c9190620004af565b8383816000908051906020019062000066929190620001c2565b5080600190805190602001906200007f929190620001c2565b505050620000a262000096620000f460201b60201c565b620000fc60201b60201c565b81600e8190555080600d60006101000a81548173ffffffffffffffffffffffffffffffffffffffff021916908373ffffffffffffffffffffffffffffffffffffffff16021790555050505050620005c4565b600033905090565b6000600a60009054906101000a900473ffffffffffffffffffffffffffffffffffffffff16905081600a60006101000a81548173ffffffffffffffffffffffffffffffffffffffff021916908373ffffffffffffffffffffffffffffffffffffffff1602179055508173ffffffffffffffffffffffffffffffffffffffff168173ffffffffffffffffffffffffffffffffffffffff167f8be0079c531659141344cd1fd0a4f28419497f9722a3daafe3b4186f6b6457e060405160405180910390a35050565b828054620001d0906200058e565b90600052602060002090601f016020900481019282620001f4576000855562000240565b82601f106200020f57805160ff191683800117855562000240565b8280016001018555821562000240579182015b828111156200023f57825182559160200191906001019062000222565b5b5090506200024f919062000253565b5090565b5b808211156200026e57600081600090555060010162000254565b5090565b6000604051905090565b600080fd5b600080fd5b600080fd5b600080fd5b6000601f19601f8301169050919050565b7f4e487b7100000000000000000000000000000000000000000000000000000000600052604160045260246000fd5b620002db8262000290565b810181811067ffffffffffffffff82111715620002fd57620002fc620002a1565b5b80604052505050565b60006200031262000272565b9050620003208282620002d0565b919050565b600067ffffffffffffffff821115620003435762000342620002a1565b5b6200034e8262000290565b9050602081019050919050565b60005b838110156200037b5780820151818401526020810190506200035e565b838111156200038b576000848401525b50505050565b6000620003a8620003a28462000325565b62000306565b905082815260208101848484011115620003c757620003c66200028b565b5b620003d48482856200035b565b509392505050565b600082601f830112620003f457620003f362000286565b5b81516200040684826020860162000391565b91505092915050565b6000819050919050565b62000424816200040f565b81146200043057600080fd5b50565b600081519050620004448162000419565b92915050565b600073ffffffffffffffffffffffffffffffffffffffff82169050919050565b600062000477826200044a565b9050919050565b62000489816200046a565b81146200049557600080fd5b50565b600081519050620004a9816200047e565b92915050565b60008060008060808587031215620004cc57620004cb6200027c565b5b600085015167ffffffffffffffff811115620004ed57620004ec62000281565b5b620004fb87828801620003dc565b945050602085015167ffffffffffffffff8111156200051f576200051e62000281565b5b6200052d87828801620003dc565b9350506040620005408782880162000433565b9250506060620005538782880162000498565b91505092959194509250565b7f4e487b7100000000000000000000000000000000000000000000000000000000600052602260045260246000fd5b60006002820490506001821680620005a757607f821691505b60208210811415620005be57620005bd6200055f565b5b50919050565b61531a80620005d46000396000f3fe6080604052600436106101d85760003560e01c80636352211e11610102578063a22cb46511610095578063dbacc23711610064578063dbacc237146106cc578063e0391b0914610709578063e985e9c514610734578063f2fde38b14610771576101d8565b8063a22cb46514610600578063b3de019c14610629578063b88d4fde14610666578063c87b56dd1461068f576101d8565b8063799c0c1e116100d1578063799c0c1e146105725780638da5cb5b1461058e57806395d89b41146105b95780639ba4b017146105e4576101d8565b80636352211e146104b657806370a08231146104f3578063715018a6146105305780637220cf3914610547576101d8565b806323b872dd1161017a57806342842e0e1161014957806342842e0e146103e857806343bc1612146104115780634f6ccce71461043c578063576f7ea714610479576101d8565b806323b872dd1461032c57806327506f53146103555780632f745c5914610380578063326bb4ad146103bd576101d8565b8063081812fc116101b6578063081812fc14610270578063095ea7b3146102ad57806313faede6146102d657806318160ddd14610301576101d8565b806301ffc9a7146101dd578063047fc9aa1461021a57806306fdde0314610245575b600080fd5b3480156101e957600080fd5b5061020460048036038101906101ff9190613953565b61079a565b604051610211919061399b565b60405180910390f35b34801561022657600080fd5b5061022f610814565b60405161023c91906139cf565b60405180910390f35b34801561025157600080fd5b5061025a61081a565b6040516102679190613a83565b60405180910390f35b34801561027c57600080fd5b5061029760048036038101906102929190613ad1565b6108ac565b6040516102a49190613b3f565b60405180910390f35b3480156102b957600080fd5b506102d460048036038101906102cf9190613b86565b6108f2565b005b3480156102e257600080fd5b506102eb610a0a565b6040516102f891906139cf565b60405180910390f35b34801561030d57600080fd5b50610316610a10565b60405161032391906139cf565b60405180910390f35b34801561033857600080fd5b50610353600480360381019061034e9190613bc6565b610a1d565b005b34801561036157600080fd5b5061036a610a7d565b6040516103779190613ded565b60405180910390f35b34801561038c57600080fd5b506103a760048036038101906103a29190613b86565b610d06565b6040516103b491906139cf565b60405180910390f35b3480156103c957600080fd5b506103d2610dab565b6040516103df91906139cf565b60405180910390f35b3480156103f457600080fd5b5061040f600480360381019061040a9190613bc6565b610db1565b005b34801561041d57600080fd5b50610426610dd1565b6040516104339190613b3f565b60405180910390f35b34801561044857600080fd5b50610463600480360381019061045e9190613ad1565b610df7565b60405161047091906139cf565b60405180910390f35b34801561048557600080fd5b506104a0600480360381019061049b9190613ad1565b610e68565b6040516104ad9190613eb9565b60405180910390f35b3480156104c257600080fd5b506104dd60048036038101906104d89190613ad1565b6110da565b6040516104ea9190613b3f565b60405180910390f35b3480156104ff57600080fd5b5061051a60048036038101906105159190613edb565b611161565b60405161052791906139cf565b60405180910390f35b34801561053c57600080fd5b50610545611219565b005b34801561055357600080fd5b5061055c61122d565b60405161056991906139cf565b60405180910390f35b61058c6004803603810190610587919061403d565b611233565b005b34801561059a57600080fd5b506105a3611606565b6040516105b09190613b3f565b60405180910390f35b3480156105c557600080fd5b506105ce611630565b6040516105db9190613a83565b60405180910390f35b6105fe60048036038101906105f99190613ad1565b6116c2565b005b34801561060c57600080fd5b5061062760048036038101906106229190614124565b611d17565b005b34801561063557600080fd5b50610650600480360381019061064b9190614164565b611d2d565b60405161065d919061399b565b60405180910390f35b34801561067257600080fd5b5061068d60048036038101906106889190614245565b611e70565b005b34801561069b57600080fd5b506106b660048036038101906106b19190613ad1565b611ed2565b6040516106c39190613a83565b60405180910390f35b3480156106d857600080fd5b506106f360048036038101906106ee9190613ad1565b611f3a565b6040516107009190613b3f565b60405180910390f35b34801561071557600080fd5b5061071e611f6d565b60405161072b9190613ded565b60405180910390f35b34801561074057600080fd5b5061075b600480360381019061075691906142c8565b6121f6565b604051610768919061399b565b60405180910390f35b34801561077d57600080fd5b5061079860048036038101906107939190613edb565b61228a565b005b60007f780e9d63000000000000000000000000000000000000000000000000000000007bffffffffffffffffffffffffffffffffffffffffffffffffffffffff1916827bffffffffffffffffffffffffffffffffffffffffffffffffffffffff1916148061080d575061080c8261230e565b5b9050919050565b600f5481565b60606000805461082990614337565b80601f016020809104026020016040519081016040528092919081815260200182805461085590614337565b80156108a25780601f10610877576101008083540402835291602001916108a2565b820191906000526020600020905b81548152906001019060200180831161088557829003601f168201915b5050505050905090565b60006108b7826123f0565b6004600083815260200190815260200160002060009054906101000a900473ffffffffffffffffffffffffffffffffffffffff169050919050565b60006108fd826110da565b90508073ffffffffffffffffffffffffffffffffffffffff168373ffffffffffffffffffffffffffffffffffffffff16141561096e576040517f08c379a0000000000000000000000000000000000000000000000000000000008152600401610965906143db565b60405180910390fd5b8073ffffffffffffffffffffffffffffffffffffffff1661098d61243b565b73ffffffffffffffffffffffffffffffffffffffff1614806109bc57506109bb816109b661243b565b6121f6565b5b6109fb576040517f08c379a00000000000000000000000000000000000000000000000000000000081526004016109f29061446d565b60405180910390fd5b610a058383612443565b505050565b60115481565b6000600880549050905090565b610a2e610a2861243b565b826124fc565b610a6d576040517f08c379a0000000000000000000000000000000000000000000000000000000008152600401610a64906144ff565b60405180910390fd5b610a78838383612591565b505050565b60606012805480602002602001604051908101604052809291908181526020016000905b82821015610cfd57838290600052602060002090600702016040518060e0016040529081600082015481526020016001820160009054906101000a900473ffffffffffffffffffffffffffffffffffffffff1673ffffffffffffffffffffffffffffffffffffffff1673ffffffffffffffffffffffffffffffffffffffff16815260200160028201548152602001600382018054610b3e90614337565b80601f0160208091040260200160405190810160405280929190818152602001828054610b6a90614337565b8015610bb75780601f10610b8c57610100808354040283529160200191610bb7565b820191906000526020600020905b815481529060010190602001808311610b9a57829003601f168201915b50505050508152602001600482018054610bd090614337565b80601f0160208091040260200160405190810160405280929190818152602001828054610bfc90614337565b8015610c495780601f10610c1e57610100808354040283529160200191610c49565b820191906000526020600020905b815481529060010190602001808311610c2c57829003601f168201915b50505050508152602001600582018054610c6290614337565b80601f0160208091040260200160405190810160405280929190818152602001828054610c8e90614337565b8015610cdb5780601f10610cb057610100808354040283529160200191610cdb565b820191906000526020600020905b815481529060010190602001808311610cbe57829003601f168201915b5050505050815260200160068201548152505081526020019060010190610aa1565b50505050905090565b6000610d1183611161565b8210610d52576040517f08c379a0000000000000000000000000000000000000000000000000000000008152600401610d4990614591565b60405180910390fd5b600660008473ffffffffffffffffffffffffffffffffffffffff1673ffffffffffffffffffffffffffffffffffffffff168152602001908152602001600020600083815260200190815260200160002054905092915050565b600e5481565b610dcc83838360405180602001604052806000815250611e70565b505050565b600d60009054906101000a900473ffffffffffffffffffffffffffffffffffffffff1681565b6000610e01610a10565b8210610e42576040517f08c379a0000000000000000000000000000000000000000000000000000000008152600401610e3990614623565b60405180910390fd5b60088281548110610e5657610e55614643565b5b90600052602060002001549050919050565b610e706137f1565b6013600183610e7f91906146a1565b81548110610e9057610e8f614643565b5b90600052602060002090600702016040518060e0016040529081600082015481526020016001820160009054906101000a900473ffffffffffffffffffffffffffffffffffffffff1673ffffffffffffffffffffffffffffffffffffffff1673ffffffffffffffffffffffffffffffffffffffff16815260200160028201548152602001600382018054610f2390614337565b80601f0160208091040260200160405190810160405280929190818152602001828054610f4f90614337565b8015610f9c5780601f10610f7157610100808354040283529160200191610f9c565b820191906000526020600020905b815481529060010190602001808311610f7f57829003601f168201915b50505050508152602001600482018054610fb590614337565b80601f0160208091040260200160405190810160405280929190818152602001828054610fe190614337565b801561102e5780601f106110035761010080835404028352916020019161102e565b820191906000526020600020905b81548152906001019060200180831161101157829003601f168201915b5050505050815260200160058201805461104790614337565b80601f016020809104026020016040519081016040528092919081815260200182805461107390614337565b80156110c05780601f10611095576101008083540402835291602001916110c0565b820191906000526020600020905b8154815290600101906020018083116110a357829003601f168201915b505050505081526020016006820154815250509050919050565b6000806110e68361288b565b9050600073ffffffffffffffffffffffffffffffffffffffff168173ffffffffffffffffffffffffffffffffffffffff161415611158576040517f08c379a000000000000000000000000000000000000000000000000000000000815260040161114f90614721565b60405180910390fd5b80915050919050565b60008073ffffffffffffffffffffffffffffffffffffffff168273ffffffffffffffffffffffffffffffffffffffff1614156111d2576040517f08c379a00000000000000000000000000000000000000000000000000000000081526004016111c9906147b3565b60405180910390fd5b600360008373ffffffffffffffffffffffffffffffffffffffff1673ffffffffffffffffffffffffffffffffffffffff168152602001908152602001600020549050919050565b6112216128c8565b61122b6000612946565b565b60105481565b601154341015611278576040517f08c379a000000000000000000000000000000000000000000000000000000000815260040161126f9061481f565b60405180910390fd5b6000600b8360405161128a919061487b565b908152602001604051809103902060009054906101000a900460ff1660ff16146112e9576040517f08c379a00000000000000000000000000000000000000000000000000000000081526004016112e0906148de565b60405180910390fd5b6112f1611606565b73ffffffffffffffffffffffffffffffffffffffff163373ffffffffffffffffffffffffffffffffffffffff16141561135f576040517f08c379a00000000000000000000000000000000000000000000000000000000081526004016113569061494a565b60405180910390fd5b60006064600e5434611371919061496a565b61137b91906149f3565b90506113a9600d60009054906101000a900473ffffffffffffffffffffffffffffffffffffffff1682612a0c565b6113c56113b4611606565b82346113c091906146a1565b612a0c565b600f60008154809291906113d890614a24565b919050555060136040518060e00160405280600f5481526020013373ffffffffffffffffffffffffffffffffffffffff1681526020018481526020018781526020018681526020018581526020014281525090806001815401808255809150506001900390600052602060002090600702016000909190919091506000820151816000015560208201518160010160006101000a81548173ffffffffffffffffffffffffffffffffffffffff021916908373ffffffffffffffffffffffffffffffffffffffff1602179055506040820151816002015560608201518160030190805190602001906114ca929190613844565b5060808201518160040190805190602001906114e7929190613844565b5060a0820151816005019080519060200190611504929190613844565b5060c0820151816006015550503373ffffffffffffffffffffffffffffffffffffffff167fb9508407a6eccb191d8da3286f4173697cf95604e9ea192fe5ab7c862b5221f6600f5434864260405161155f9493929190614a6d565b60405180910390a261157333600f54612a87565b6001600b84604051611585919061487b565b908152602001604051809103902060006101000a81548160ff021916908360ff16021790555033600c6000600f54815260200190815260200160002060006101000a81548173ffffffffffffffffffffffffffffffffffffffff021916908373ffffffffffffffffffffffffffffffffffffffff1602179055505050505050565b6000600a60009054906101000a900473ffffffffffffffffffffffffffffffffffffffff16905090565b60606001805461163f90614337565b80601f016020809104026020016040519081016040528092919081815260200182805461166b90614337565b80156116b85780601f1061168d576101008083540402835291602001916116b8565b820191906000526020600020905b81548152906001019060200180831161169b57829003601f168201915b5050505050905090565b60136001826116d191906146a1565b815481106116e2576116e1614643565b5b906000526020600020906007020160020154341015611736576040517f08c379a000000000000000000000000000000000000000000000000000000000815260040161172d90614b05565b60405180910390fd5b601360018261174591906146a1565b8154811061175657611755614643565b5b906000526020600020906007020160010160009054906101000a900473ffffffffffffffffffffffffffffffffffffffff1673ffffffffffffffffffffffffffffffffffffffff163373ffffffffffffffffffffffffffffffffffffffff1614156117f6576040517f08c379a00000000000000000000000000000000000000000000000000000000081526004016117ed90614b71565b60405180910390fd5b60006064600e5434611808919061496a565b61181291906149f3565b9050611840600d60009054906101000a900473ffffffffffffffffffffffffffffffffffffffff1682612a0c565b6118a6601360018461185291906146a1565b8154811061186357611862614643565b5b906000526020600020906007020160010160009054906101000a900473ffffffffffffffffffffffffffffffffffffffff1682346118a191906146a1565b612a0c565b601060008154809291906118b990614a24565b919050555060126040518060e0016040528060105481526020013373ffffffffffffffffffffffffffffffffffffffff168152602001348152602001601360018661190491906146a1565b8154811061191557611914614643565b5b9060005260206000209060070201600301805461193190614337565b80601f016020809104026020016040519081016040528092919081815260200182805461195d90614337565b80156119aa5780601f1061197f576101008083540402835291602001916119aa565b820191906000526020600020905b81548152906001019060200180831161198d57829003601f168201915b5050505050815260200160136001866119c391906146a1565b815481106119d4576119d3614643565b5b906000526020600020906007020160040180546119f090614337565b80601f0160208091040260200160405190810160405280929190818152602001828054611a1c90614337565b8015611a695780601f10611a3e57610100808354040283529160200191611a69565b820191906000526020600020905b815481529060010190602001808311611a4c57829003601f168201915b505050505081526020016013600186611a8291906146a1565b81548110611a9357611a92614643565b5b90600052602060002090600702016005018054611aaf90614337565b80601f0160208091040260200160405190810160405280929190818152602001828054611adb90614337565b8015611b285780601f10611afd57610100808354040283529160200191611b28565b820191906000526020600020905b815481529060010190602001808311611b0b57829003601f168201915b505050505081526020014281525090806001815401808255809150506001900390600052602060002090600702016000909190919091506000820151816000015560208201518160010160006101000a81548173ffffffffffffffffffffffffffffffffffffffff021916908373ffffffffffffffffffffffffffffffffffffffff160217905550604082015181600201556060820151816003019080519060200190611bd6929190613844565b506080820151816004019080519060200190611bf3929190613844565b5060a0820151816005019080519060200190611c10929190613844565b5060c0820151816006015550503373ffffffffffffffffffffffffffffffffffffffff167fb9508407a6eccb191d8da3286f4173697cf95604e9ea192fe5ab7c862b5221f6601054346013600187611c6891906146a1565b81548110611c7957611c78614643565b5b906000526020600020906007020160050142604051611c9b9493929190614c26565b60405180910390a2336013600184611cb391906146a1565b81548110611cc457611cc3614643565b5b906000526020600020906007020160010160006101000a81548173ffffffffffffffffffffffffffffffffffffffff021916908373ffffffffffffffffffffffffffffffffffffffff1602179055505050565b611d29611d2261243b565b8383612aa5565b5050565b6000808211611d71576040517f08c379a0000000000000000000000000000000000000000000000000000000008152600401611d6890614cbe565b60405180910390fd5b6013600184611d8091906146a1565b81548110611d9157611d90614643565b5b906000526020600020906007020160010160009054906101000a900473ffffffffffffffffffffffffffffffffffffffff1673ffffffffffffffffffffffffffffffffffffffff163373ffffffffffffffffffffffffffffffffffffffff1614611e30576040517f08c379a0000000000000000000000000000000000000000000000000000000008152600401611e2790614b71565b60405180910390fd5b816013600185611e4091906146a1565b81548110611e5157611e50614643565b5b9060005260206000209060070201600201819055506001905092915050565b611e81611e7b61243b565b836124fc565b611ec0576040517f08c379a0000000000000000000000000000000000000000000000000000000008152600401611eb7906144ff565b60405180910390fd5b611ecc84848484612c12565b50505050565b6060611edd826123f0565b6000611ee7612c6e565b90506000815111611f075760405180602001604052806000815250611f32565b80611f1184612c85565b604051602001611f22929190614cde565b6040516020818303038152906040525b915050919050565b600c6020528060005260406000206000915054906101000a900473ffffffffffffffffffffffffffffffffffffffff1681565b60606013805480602002602001604051908101604052809291908181526020016000905b828210156121ed57838290600052602060002090600702016040518060e0016040529081600082015481526020016001820160009054906101000a900473ffffffffffffffffffffffffffffffffffffffff1673ffffffffffffffffffffffffffffffffffffffff1673ffffffffffffffffffffffffffffffffffffffff1681526020016002820154815260200160038201805461202e90614337565b80601f016020809104026020016040519081016040528092919081815260200182805461205a90614337565b80156120a75780601f1061207c576101008083540402835291602001916120a7565b820191906000526020600020905b81548152906001019060200180831161208a57829003601f168201915b505050505081526020016004820180546120c090614337565b80601f01602080910402602001604051908101604052809291908181526020018280546120ec90614337565b80156121395780601f1061210e57610100808354040283529160200191612139565b820191906000526020600020905b81548152906001019060200180831161211c57829003601f168201915b5050505050815260200160058201805461215290614337565b80601f016020809104026020016040519081016040528092919081815260200182805461217e90614337565b80156121cb5780601f106121a0576101008083540402835291602001916121cb565b820191906000526020600020905b8154815290600101906020018083116121ae57829003601f168201915b5050505050815260200160068201548152505081526020019060010190611f91565b50505050905090565b6000600560008473ffffffffffffffffffffffffffffffffffffffff1673ffffffffffffffffffffffffffffffffffffffff16815260200190815260200160002060008373ffffffffffffffffffffffffffffffffffffffff1673ffffffffffffffffffffffffffffffffffffffff16815260200190815260200160002060009054906101000a900460ff16905092915050565b6122926128c8565b600073ffffffffffffffffffffffffffffffffffffffff168173ffffffffffffffffffffffffffffffffffffffff161415612302576040517f08c379a00000000000000000000000000000000000000000000000000000000081526004016122f990614d74565b60405180910390fd5b61230b81612946565b50565b60007f80ac58cd000000000000000000000000000000000000000000000000000000007bffffffffffffffffffffffffffffffffffffffffffffffffffffffff1916827bffffffffffffffffffffffffffffffffffffffffffffffffffffffff191614806123d957507f5b5e139f000000000000000000000000000000000000000000000000000000007bffffffffffffffffffffffffffffffffffffffffffffffffffffffff1916827bffffffffffffffffffffffffffffffffffffffffffffffffffffffff1916145b806123e957506123e882612d5d565b5b9050919050565b6123f981612dc7565b612438576040517f08c379a000000000000000000000000000000000000000000000000000000000815260040161242f90614721565b60405180910390fd5b50565b600033905090565b816004600083815260200190815260200160002060006101000a81548173ffffffffffffffffffffffffffffffffffffffff021916908373ffffffffffffffffffffffffffffffffffffffff160217905550808273ffffffffffffffffffffffffffffffffffffffff166124b6836110da565b73ffffffffffffffffffffffffffffffffffffffff167f8c5be1e5ebec7d5bd14f71427d1e84f3dd0314c0f7b2291e5b200ac8c7c3b92560405160405180910390a45050565b600080612508836110da565b90508073ffffffffffffffffffffffffffffffffffffffff168473ffffffffffffffffffffffffffffffffffffffff16148061254a575061254981856121f6565b5b8061258857508373ffffffffffffffffffffffffffffffffffffffff16612570846108ac565b73ffffffffffffffffffffffffffffffffffffffff16145b91505092915050565b8273ffffffffffffffffffffffffffffffffffffffff166125b1826110da565b73ffffffffffffffffffffffffffffffffffffffff1614612607576040517f08c379a00000000000000000000000000000000000000000000000000000000081526004016125fe90614e06565b60405180910390fd5b600073ffffffffffffffffffffffffffffffffffffffff168273ffffffffffffffffffffffffffffffffffffffff161415612677576040517f08c379a000000000000000000000000000000000000000000000000000000000815260040161266e90614e98565b60405180910390fd5b6126848383836001612e08565b8273ffffffffffffffffffffffffffffffffffffffff166126a4826110da565b73ffffffffffffffffffffffffffffffffffffffff16146126fa576040517f08c379a00000000000000000000000000000000000000000000000000000000081526004016126f190614e06565b60405180910390fd5b6004600082815260200190815260200160002060006101000a81549073ffffffffffffffffffffffffffffffffffffffff02191690556001600360008573ffffffffffffffffffffffffffffffffffffffff1673ffffffffffffffffffffffffffffffffffffffff168152602001908152602001600020600082825403925050819055506001600360008473ffffffffffffffffffffffffffffffffffffffff1673ffffffffffffffffffffffffffffffffffffffff16815260200190815260200160002060008282540192505081905550816002600083815260200190815260200160002060006101000a81548173ffffffffffffffffffffffffffffffffffffffff021916908373ffffffffffffffffffffffffffffffffffffffff160217905550808273ffffffffffffffffffffffffffffffffffffffff168473ffffffffffffffffffffffffffffffffffffffff167fddf252ad1be2c89b69c2b068fc378daa952ba7f163c4a11628f55a4df523b3ef60405160405180910390a46128868383836001612f68565b505050565b60006002600083815260200190815260200160002060009054906101000a900473ffffffffffffffffffffffffffffffffffffffff169050919050565b6128d061243b565b73ffffffffffffffffffffffffffffffffffffffff166128ee611606565b73ffffffffffffffffffffffffffffffffffffffff1614612944576040517f08c379a000000000000000000000000000000000000000000000000000000000815260040161293b90614f04565b60405180910390fd5b565b6000600a60009054906101000a900473ffffffffffffffffffffffffffffffffffffffff16905081600a60006101000a81548173ffffffffffffffffffffffffffffffffffffffff021916908373ffffffffffffffffffffffffffffffffffffffff1602179055508173ffffffffffffffffffffffffffffffffffffffff168173ffffffffffffffffffffffffffffffffffffffff167f8be0079c531659141344cd1fd0a4f28419497f9722a3daafe3b4186f6b6457e060405160405180910390a35050565b60008273ffffffffffffffffffffffffffffffffffffffff1682604051612a3290614f55565b60006040518083038185875af1925050503d8060008114612a6f576040519150601f19603f3d011682016040523d82523d6000602084013e612a74565b606091505b5050905080612a8257600080fd5b505050565b612aa1828260405180602001604052806000815250612f6e565b5050565b8173ffffffffffffffffffffffffffffffffffffffff168373ffffffffffffffffffffffffffffffffffffffff161415612b14576040517f08c379a0000000000000000000000000000000000000000000000000000000008152600401612b0b90614fb6565b60405180910390fd5b80600560008573ffffffffffffffffffffffffffffffffffffffff1673ffffffffffffffffffffffffffffffffffffffff16815260200190815260200160002060008473ffffffffffffffffffffffffffffffffffffffff1673ffffffffffffffffffffffffffffffffffffffff16815260200190815260200160002060006101000a81548160ff0219169083151502179055508173ffffffffffffffffffffffffffffffffffffffff168373ffffffffffffffffffffffffffffffffffffffff167f17307eab39ab6107e8899845ad3d59bd9653f200f220920489ca2b5937696c3183604051612c05919061399b565b60405180910390a3505050565b612c1d848484612591565b612c2984848484612fc9565b612c68576040517f08c379a0000000000000000000000000000000000000000000000000000000008152600401612c5f90615048565b60405180910390fd5b50505050565b606060405180602001604052806000815250905090565b606060006001612c9484613151565b01905060008167ffffffffffffffff811115612cb357612cb2613f12565b5b6040519080825280601f01601f191660200182016040528015612ce55781602001600182028036833780820191505090505b509050600082602001820190505b600115612d52578080600190039150507f3031323334353637383961626364656600000000000000000000000000000000600a86061a8153600a8581612d3c57612d3b6149c4565b5b0494506000851415612d4d57612d52565b612cf3565b819350505050919050565b60007f01ffc9a7000000000000000000000000000000000000000000000000000000007bffffffffffffffffffffffffffffffffffffffffffffffffffffffff1916827bffffffffffffffffffffffffffffffffffffffffffffffffffffffff1916149050919050565b60008073ffffffffffffffffffffffffffffffffffffffff16612de98361288b565b73ffffffffffffffffffffffffffffffffffffffff1614159050919050565b612e14848484846132a4565b6001811115612e58576040517f08c379a0000000000000000000000000000000000000000000000000000000008152600401612e4f906150da565b60405180910390fd5b6000829050600073ffffffffffffffffffffffffffffffffffffffff168573ffffffffffffffffffffffffffffffffffffffff161415612ea057612e9b816132aa565b612edf565b8373ffffffffffffffffffffffffffffffffffffffff168573ffffffffffffffffffffffffffffffffffffffff1614612ede57612edd85826132f3565b5b5b600073ffffffffffffffffffffffffffffffffffffffff168473ffffffffffffffffffffffffffffffffffffffff161415612f2257612f1d81613460565b612f61565b8473ffffffffffffffffffffffffffffffffffffffff168473ffffffffffffffffffffffffffffffffffffffff1614612f6057612f5f8482613531565b5b5b5050505050565b50505050565b612f7883836135b0565b612f856000848484612fc9565b612fc4576040517f08c379a0000000000000000000000000000000000000000000000000000000008152600401612fbb90615048565b60405180910390fd5b505050565b6000612fea8473ffffffffffffffffffffffffffffffffffffffff166137ce565b15613144578373ffffffffffffffffffffffffffffffffffffffff1663150b7a0261301361243b565b8786866040518563ffffffff1660e01b8152600401613035949392919061514f565b6020604051808303816000875af192505050801561307157506040513d601f19601f8201168201806040525081019061306e91906151b0565b60015b6130f4573d80600081146130a1576040519150601f19603f3d011682016040523d82523d6000602084013e6130a6565b606091505b506000815114156130ec576040517f08c379a00000000000000000000000000000000000000000000000000000000081526004016130e390615048565b60405180910390fd5b805181602001fd5b63150b7a0260e01b7bffffffffffffffffffffffffffffffffffffffffffffffffffffffff1916817bffffffffffffffffffffffffffffffffffffffffffffffffffffffff191614915050613149565b600190505b949350505050565b600080600090507a184f03e93ff9f4daa797ed6e38ed64bf6a1f01000000000000000083106131af577a184f03e93ff9f4daa797ed6e38ed64bf6a1f01000000000000000083816131a5576131a46149c4565b5b0492506040810190505b6d04ee2d6d415b85acef810000000083106131ec576d04ee2d6d415b85acef810000000083816131e2576131e16149c4565b5b0492506020810190505b662386f26fc10000831061321b57662386f26fc100008381613211576132106149c4565b5b0492506010810190505b6305f5e1008310613244576305f5e100838161323a576132396149c4565b5b0492506008810190505b612710831061326957612710838161325f5761325e6149c4565b5b0492506004810190505b6064831061328c5760648381613282576132816149c4565b5b0492506002810190505b600a831061329b576001810190505b80915050919050565b50505050565b6008805490506009600083815260200190815260200160002081905550600881908060018154018082558091505060019003906000526020600020016000909190919091505550565b6000600161330084611161565b61330a91906146a1565b90506000600760008481526020019081526020016000205490508181146133ef576000600660008673ffffffffffffffffffffffffffffffffffffffff1673ffffffffffffffffffffffffffffffffffffffff168152602001908152602001600020600084815260200190815260200160002054905080600660008773ffffffffffffffffffffffffffffffffffffffff1673ffffffffffffffffffffffffffffffffffffffff168152602001908152602001600020600084815260200190815260200160002081905550816007600083815260200190815260200160002081905550505b6007600084815260200190815260200160002060009055600660008573ffffffffffffffffffffffffffffffffffffffff1673ffffffffffffffffffffffffffffffffffffffff16815260200190815260200160002060008381526020019081526020016000206000905550505050565b6000600160088054905061347491906146a1565b90506000600960008481526020019081526020016000205490506000600883815481106134a4576134a3614643565b5b9060005260206000200154905080600883815481106134c6576134c5614643565b5b906000526020600020018190555081600960008381526020019081526020016000208190555060096000858152602001908152602001600020600090556008805480613515576135146151dd565b5b6001900381819060005260206000200160009055905550505050565b600061353c83611161565b905081600660008573ffffffffffffffffffffffffffffffffffffffff1673ffffffffffffffffffffffffffffffffffffffff168152602001908152602001600020600083815260200190815260200160002081905550806007600084815260200190815260200160002081905550505050565b600073ffffffffffffffffffffffffffffffffffffffff168273ffffffffffffffffffffffffffffffffffffffff161415613620576040517f08c379a000000000000000000000000000000000000000000000000000000000815260040161361790615258565b60405180910390fd5b61362981612dc7565b15613669576040517f08c379a0000000000000000000000000000000000000000000000000000000008152600401613660906152c4565b60405180910390fd5b613677600083836001612e08565b61368081612dc7565b156136c0576040517f08c379a00000000000000000000000000000000000000000000000000000000081526004016136b7906152c4565b60405180910390fd5b6001600360008473ffffffffffffffffffffffffffffffffffffffff1673ffffffffffffffffffffffffffffffffffffffff16815260200190815260200160002060008282540192505081905550816002600083815260200190815260200160002060006101000a81548173ffffffffffffffffffffffffffffffffffffffff021916908373ffffffffffffffffffffffffffffffffffffffff160217905550808273ffffffffffffffffffffffffffffffffffffffff16600073ffffffffffffffffffffffffffffffffffffffff167fddf252ad1be2c89b69c2b068fc378daa952ba7f163c4a11628f55a4df523b3ef60405160405180910390a46137ca600083836001612f68565b5050565b6000808273ffffffffffffffffffffffffffffffffffffffff163b119050919050565b6040518060e0016040528060008152602001600073ffffffffffffffffffffffffffffffffffffffff16815260200160008152602001606081526020016060815260200160608152602001600081525090565b82805461385090614337565b90600052602060002090601f01602090048101928261387257600085556138b9565b82601f1061388b57805160ff19168380011785556138b9565b828001600101855582156138b9579182015b828111156138b857825182559160200191906001019061389d565b5b5090506138c691906138ca565b5090565b5b808211156138e35760008160009055506001016138cb565b5090565b6000604051905090565b600080fd5b600080fd5b60007fffffffff0000000000000000000000000000000000000000000000000000000082169050919050565b613930816138fb565b811461393b57600080fd5b50565b60008135905061394d81613927565b92915050565b600060208284031215613969576139686138f1565b5b60006139778482850161393e565b91505092915050565b60008115159050919050565b61399581613980565b82525050565b60006020820190506139b0600083018461398c565b92915050565b6000819050919050565b6139c9816139b6565b82525050565b60006020820190506139e460008301846139c0565b92915050565b600081519050919050565b600082825260208201905092915050565b60005b83811015613a24578082015181840152602081019050613a09565b83811115613a33576000848401525b50505050565b6000601f19601f8301169050919050565b6000613a55826139ea565b613a5f81856139f5565b9350613a6f818560208601613a06565b613a7881613a39565b840191505092915050565b60006020820190508181036000830152613a9d8184613a4a565b905092915050565b613aae816139b6565b8114613ab957600080fd5b50565b600081359050613acb81613aa5565b92915050565b600060208284031215613ae757613ae66138f1565b5b6000613af584828501613abc565b91505092915050565b600073ffffffffffffffffffffffffffffffffffffffff82169050919050565b6000613b2982613afe565b9050919050565b613b3981613b1e565b82525050565b6000602082019050613b546000830184613b30565b92915050565b613b6381613b1e565b8114613b6e57600080fd5b50565b600081359050613b8081613b5a565b92915050565b60008060408385031215613b9d57613b9c6138f1565b5b6000613bab85828601613b71565b9250506020613bbc85828601613abc565b9150509250929050565b600080600060608486031215613bdf57613bde6138f1565b5b6000613bed86828701613b71565b9350506020613bfe86828701613b71565b9250506040613c0f86828701613abc565b9150509250925092565b600081519050919050565b600082825260208201905092915050565b6000819050602082019050919050565b613c4e816139b6565b82525050565b613c5d81613b1e565b82525050565b600082825260208201905092915050565b6000613c7f826139ea565b613c898185613c63565b9350613c99818560208601613a06565b613ca281613a39565b840191505092915050565b600060e083016000830151613cc56000860182613c45565b506020830151613cd86020860182613c54565b506040830151613ceb6040860182613c45565b5060608301518482036060860152613d038282613c74565b91505060808301518482036080860152613d1d8282613c74565b91505060a083015184820360a0860152613d378282613c74565b91505060c0830151613d4c60c0860182613c45565b508091505092915050565b6000613d638383613cad565b905092915050565b6000602082019050919050565b6000613d8382613c19565b613d8d8185613c24565b935083602082028501613d9f85613c35565b8060005b85811015613ddb5784840389528151613dbc8582613d57565b9450613dc783613d6b565b925060208a01995050600181019050613da3565b50829750879550505050505092915050565b60006020820190508181036000830152613e078184613d78565b905092915050565b600060e083016000830151613e276000860182613c45565b506020830151613e3a6020860182613c54565b506040830151613e4d6040860182613c45565b5060608301518482036060860152613e658282613c74565b91505060808301518482036080860152613e7f8282613c74565b91505060a083015184820360a0860152613e998282613c74565b91505060c0830151613eae60c0860182613c45565b508091505092915050565b60006020820190508181036000830152613ed38184613e0f565b905092915050565b600060208284031215613ef157613ef06138f1565b5b6000613eff84828501613b71565b91505092915050565b600080fd5b600080fd5b7f4e487b7100000000000000000000000000000000000000000000000000000000600052604160045260246000fd5b613f4a82613a39565b810181811067ffffffffffffffff82111715613f6957613f68613f12565b5b80604052505050565b6000613f7c6138e7565b9050613f888282613f41565b919050565b600067ffffffffffffffff821115613fa857613fa7613f12565b5b613fb182613a39565b9050602081019050919050565b82818337600083830152505050565b6000613fe0613fdb84613f8d565b613f72565b905082815260208101848484011115613ffc57613ffb613f0d565b5b614007848285613fbe565b509392505050565b600082601f83011261402457614023613f08565b5b8135614034848260208601613fcd565b91505092915050565b60008060008060808587031215614057576140566138f1565b5b600085013567ffffffffffffffff811115614075576140746138f6565b5b6140818782880161400f565b945050602085013567ffffffffffffffff8111156140a2576140a16138f6565b5b6140ae8782880161400f565b935050604085013567ffffffffffffffff8111156140cf576140ce6138f6565b5b6140db8782880161400f565b92505060606140ec87828801613abc565b91505092959194509250565b61410181613980565b811461410c57600080fd5b50565b60008135905061411e816140f8565b92915050565b6000806040838503121561413b5761413a6138f1565b5b600061414985828601613b71565b925050602061415a8582860161410f565b9150509250929050565b6000806040838503121561417b5761417a6138f1565b5b600061418985828601613abc565b925050602061419a85828601613abc565b9150509250929050565b600067ffffffffffffffff8211156141bf576141be613f12565b5b6141c882613a39565b9050602081019050919050565b60006141e86141e3846141a4565b613f72565b90508281526020810184848401111561420457614203613f0d565b5b61420f848285613fbe565b509392505050565b600082601f83011261422c5761422b613f08565b5b813561423c8482602086016141d5565b91505092915050565b6000806000806080858703121561425f5761425e6138f1565b5b600061426d87828801613b71565b945050602061427e87828801613b71565b935050604061428f87828801613abc565b925050606085013567ffffffffffffffff8111156142b0576142af6138f6565b5b6142bc87828801614217565b91505092959194509250565b600080604083850312156142df576142de6138f1565b5b60006142ed85828601613b71565b92505060206142fe85828601613b71565b9150509250929050565b7f4e487b7100000000000000000000000000000000000000000000000000000000600052602260045260246000fd5b6000600282049050600182168061434f57607f821691505b6020821081141561436357614362614308565b5b50919050565b7f4552433732313a20617070726f76616c20746f2063757272656e74206f776e6560008201527f7200000000000000000000000000000000000000000000000000000000000000602082015250565b60006143c56021836139f5565b91506143d082614369565b604082019050919050565b600060208201905081810360008301526143f4816143b8565b9050919050565b7f4552433732313a20617070726f76652063616c6c6572206973206e6f7420746f60008201527f6b656e206f776e6572206f7220617070726f76656420666f7220616c6c000000602082015250565b6000614457603d836139f5565b9150614462826143fb565b604082019050919050565b600060208201905081810360008301526144868161444a565b9050919050565b7f4552433732313a2063616c6c6572206973206e6f7420746f6b656e206f776e6560008201527f72206f7220617070726f76656400000000000000000000000000000000000000602082015250565b60006144e9602d836139f5565b91506144f48261448d565b604082019050919050565b60006020820190508181036000830152614518816144dc565b9050919050565b7f455243373231456e756d657261626c653a206f776e657220696e646578206f7560008201527f74206f6620626f756e6473000000000000000000000000000000000000000000602082015250565b600061457b602b836139f5565b91506145868261451f565b604082019050919050565b600060208201905081810360008301526145aa8161456e565b9050919050565b7f455243373231456e756d657261626c653a20676c6f62616c20696e646578206f60008201527f7574206f6620626f756e64730000000000000000000000000000000000000000602082015250565b600061460d602c836139f5565b9150614618826145b1565b604082019050919050565b6000602082019050818103600083015261463c81614600565b9050919050565b7f4e487b7100000000000000000000000000000000000000000000000000000000600052603260045260246000fd5b7f4e487b7100000000000000000000000000000000000000000000000000000000600052601160045260246000fd5b60006146ac826139b6565b91506146b7836139b6565b9250828210156146ca576146c9614672565b5b828203905092915050565b7f4552433732313a20696e76616c696420746f6b656e2049440000000000000000600082015250565b600061470b6018836139f5565b9150614716826146d5565b602082019050919050565b6000602082019050818103600083015261473a816146fe565b9050919050565b7f4552433732313a2061646472657373207a65726f206973206e6f74206120766160008201527f6c6964206f776e65720000000000000000000000000000000000000000000000602082015250565b600061479d6029836139f5565b91506147a882614741565b604082019050919050565b600060208201905081810360008301526147cc81614790565b9050919050565b7f457468657220746f6f206c6f7720666f72206d696e74696e6721000000000000600082015250565b6000614809601a836139f5565b9150614814826147d3565b602082019050919050565b60006020820190508181036000830152614838816147fc565b9050919050565b600081905092915050565b6000614855826139ea565b61485f818561483f565b935061486f818560208601613a06565b80840191505092915050565b6000614887828461484a565b915081905092915050565b7f54686973204e465420697320616c7265616479206d696e746564210000000000600082015250565b60006148c8601b836139f5565b91506148d382614892565b602082019050919050565b600060208201905081810360008301526148f7816148bb565b9050919050565b7f53616c6573206e6f7420616c6c6f776564210000000000000000000000000000600082015250565b60006149346012836139f5565b915061493f826148fe565b602082019050919050565b6000602082019050818103600083015261496381614927565b9050919050565b6000614975826139b6565b9150614980836139b6565b9250817fffffffffffffffffffffffffffffffffffffffffffffffffffffffffffffffff04831182151516156149b9576149b8614672565b5b828202905092915050565b7f4e487b7100000000000000000000000000000000000000000000000000000000600052601260045260246000fd5b60006149fe826139b6565b9150614a09836139b6565b925082614a1957614a186149c4565b5b828204905092915050565b6000614a2f826139b6565b91507fffffffffffffffffffffffffffffffffffffffffffffffffffffffffffffffff821415614a6257614a61614672565b5b600182019050919050565b6000608082019050614a8260008301876139c0565b614a8f60208301866139c0565b8181036040830152614aa18185613a4a565b9050614ab060608301846139c0565b95945050505050565b7f457468657220746f6f206c6f7720666f72207075726368617365210000000000600082015250565b6000614aef601b836139f5565b9150614afa82614ab9565b602082019050919050565b60006020820190508181036000830152614b1e81614ae2565b9050919050565b7f4f7065726174696f6e204e6f7420416c6c6f7765642100000000000000000000600082015250565b6000614b5b6016836139f5565b9150614b6682614b25565b602082019050919050565b60006020820190508181036000830152614b8a81614b4e565b9050919050565b60008190508160005260206000209050919050565b60008154614bb381614337565b614bbd81866139f5565b94506001821660008114614bd85760018114614bea57614c1d565b60ff1983168652602086019350614c1d565b614bf385614b91565b60005b83811015614c1557815481890152600182019150602081019050614bf6565b808801955050505b50505092915050565b6000608082019050614c3b60008301876139c0565b614c4860208301866139c0565b8181036040830152614c5a8185614ba6565b9050614c6960608301846139c0565b95945050505050565b7f457468657220746f6f206c6f7721000000000000000000000000000000000000600082015250565b6000614ca8600e836139f5565b9150614cb382614c72565b602082019050919050565b60006020820190508181036000830152614cd781614c9b565b9050919050565b6000614cea828561484a565b9150614cf6828461484a565b91508190509392505050565b7f4f776e61626c653a206e6577206f776e657220697320746865207a65726f206160008201527f6464726573730000000000000000000000000000000000000000000000000000602082015250565b6000614d5e6026836139f5565b9150614d6982614d02565b604082019050919050565b60006020820190508181036000830152614d8d81614d51565b9050919050565b7f4552433732313a207472616e736665722066726f6d20696e636f72726563742060008201527f6f776e6572000000000000000000000000000000000000000000000000000000602082015250565b6000614df06025836139f5565b9150614dfb82614d94565b604082019050919050565b60006020820190508181036000830152614e1f81614de3565b9050919050565b7f4552433732313a207472616e7366657220746f20746865207a65726f2061646460008201527f7265737300000000000000000000000000000000000000000000000000000000602082015250565b6000614e826024836139f5565b9150614e8d82614e26565b604082019050919050565b60006020820190508181036000830152614eb181614e75565b9050919050565b7f4f776e61626c653a2063616c6c6572206973206e6f7420746865206f776e6572600082015250565b6000614eee6020836139f5565b9150614ef982614eb8565b602082019050919050565b60006020820190508181036000830152614f1d81614ee1565b9050919050565b600081905092915050565b50565b6000614f3f600083614f24565b9150614f4a82614f2f565b600082019050919050565b6000614f6082614f32565b9150819050919050565b7f4552433732313a20617070726f766520746f2063616c6c657200000000000000600082015250565b6000614fa06019836139f5565b9150614fab82614f6a565b602082019050919050565b60006020820190508181036000830152614fcf81614f93565b9050919050565b7f4552433732313a207472616e7366657220746f206e6f6e20455243373231526560008201527f63656976657220696d706c656d656e7465720000000000000000000000000000602082015250565b60006150326032836139f5565b915061503d82614fd6565b604082019050919050565b6000602082019050818103600083015261506181615025565b9050919050565b7f455243373231456e756d657261626c653a20636f6e736563757469766520747260008201527f616e7366657273206e6f7420737570706f727465640000000000000000000000602082015250565b60006150c46035836139f5565b91506150cf82615068565b604082019050919050565b600060208201905081810360008301526150f3816150b7565b9050919050565b600081519050919050565b600082825260208201905092915050565b6000615121826150fa565b61512b8185615105565b935061513b818560208601613a06565b61514481613a39565b840191505092915050565b60006080820190506151646000830187613b30565b6151716020830186613b30565b61517e60408301856139c0565b81810360608301526151908184615116565b905095945050505050565b6000815190506151aa81613927565b92915050565b6000602082840312156151c6576151c56138f1565b5b60006151d48482850161519b565b91505092915050565b7f4e487b7100000000000000000000000000000000000000000000000000000000600052603160045260246000fd5b7f4552433732313a206d696e7420746f20746865207a65726f2061646472657373600082015250565b60006152426020836139f5565b915061524d8261520c565b602082019050919050565b6000602082019050818103600083015261527181615235565b9050919050565b7f4552433732313a20746f6b656e20616c7265616479206d696e74656400000000600082015250565b60006152ae601c836139f5565b91506152b982615278565b602082019050919050565b600060208201905081810360008301526152dd816152a1565b905091905056fea2646970667358221220b11a32cede232128ac212237dfd962cfe246e98d050809ea218a768ea528038064736f6c634300080b0033",
  "immutableReferences": {},
  "source": "// SPDX-License-Identifier: MIT\r\npragma solidity >=0.7.0 <0.9.0;\r\n// import \"./ERC721.sol\";\r\nimport \"@openzeppelin/contracts/token/ERC721/ERC721.sol\";\r\n// import \"./ERC721Enumerable.sol\";\r\nimport \"@openzeppelin/contracts/token/ERC721/extensions/ERC721Enumerable.sol\";\r\nimport \"@openzeppelin/contracts/access/Ownable.sol\";\r\n\r\ncontract DigiArtsNFT is ERC721Enumerable, Ownable {\r\n    using Strings for uint256;\r\n    mapping(string => uint8) existingURIs;\r\n    mapping(uint256 => address) public holderOf;\r\n\r\n    address public artist;\r\n    uint256 public royalityFee;\r\n    uint256 public supply = 0;\r\n    uint256 public totalTx = 0;\r\n    uint256 public cost = 0.01 ether;\r\n\r\n    event Sale(\r\n        uint256 id,\r\n        address indexed owner,\r\n        uint256 cost,\r\n        string metadataURI,\r\n        uint256 timestamp\r\n    );\r\n\r\n    struct TransactionStruct {\r\n        uint256 id;\r\n        address owner;\r\n        uint256 cost;\r\n        string title;\r\n        string description;\r\n        string metadataURI;\r\n        uint256 timestamp;\r\n    }\r\n\r\n    TransactionStruct[] transactions;\r\n    TransactionStruct[] minted;\r\n\r\n    constructor(\r\n        string memory _name,\r\n        string memory _symbol,\r\n        uint256 _royalityFee,\r\n        address _artist\r\n    ) ERC721(_name, _symbol) {\r\n        royalityFee = _royalityFee;\r\n        artist = _artist;\r\n    }\r\n\r\n    function payToMint(\r\n        string memory title,\r\n        string memory description,\r\n        string memory metadataURI,\r\n        uint256 salesPrice\r\n    ) external payable {\r\n        require(msg.value >= cost, \"Ether too low for minting!\");\r\n        require(existingURIs[metadataURI] == 0, \"This NFT is already minted!\");\r\n        require(msg.sender != owner(), \"Sales not allowed!\");\r\n        \r\n\r\n        uint256 royality = (msg.value * royalityFee) / 100;\r\n        payTo(artist, royality);\r\n        payTo(owner(), (msg.value - royality));\r\n\r\n        supply++;\r\n\r\n        minted.push(\r\n            TransactionStruct(\r\n                supply,\r\n                msg.sender,\r\n                salesPrice,\r\n                title,\r\n                description,\r\n                metadataURI,\r\n                block.timestamp\r\n            )\r\n        );\r\n\r\n        emit Sale(\r\n            supply,\r\n            msg.sender,\r\n            msg.value,\r\n            metadataURI,\r\n            block.timestamp\r\n        );\r\n\r\n        _safeMint(msg.sender, supply);\r\n        existingURIs[metadataURI] = 1;\r\n        holderOf[supply] = msg.sender;\r\n    }\r\n\r\n    function payToBuy(uint256 id) external payable {\r\n        require(msg.value >= minted[id - 1].cost, \"Ether too low for purchase!\");\r\n        require(msg.sender != minted[id - 1].owner, \"Operation Not Allowed!\");\r\n\r\n        uint256 royality = (msg.value * royalityFee) / 100;\r\n        payTo(artist, royality);\r\n        payTo(minted[id - 1].owner, (msg.value - royality));\r\n\r\n        totalTx++;\r\n\r\n        transactions.push(\r\n            TransactionStruct(\r\n                totalTx,\r\n                msg.sender,\r\n                msg.value,\r\n                minted[id - 1].title,\r\n                minted[id - 1].description,\r\n                minted[id - 1].metadataURI,\r\n                block.timestamp\r\n            )\r\n        );\r\n\r\n        emit Sale(\r\n            totalTx,\r\n            msg.sender,\r\n            msg.value,\r\n            minted[id - 1].metadataURI,\r\n            block.timestamp\r\n        );\r\n\r\n        minted[id - 1].owner = msg.sender;\r\n    }\r\n\r\n    function changePrice(uint256 id, uint256 newPrice) external returns (bool) {\r\n        require(newPrice > 0 ether, \"Ether too low!\");\r\n        require(msg.sender == minted[id - 1].owner, \"Operation Not Allowed!\");\r\n\r\n        minted[id - 1].cost = newPrice;\r\n        return true;\r\n    }\r\n\r\n    function payTo(address to, uint256 amount) internal {\r\n        (bool success, ) = payable(to).call{value: amount}(\"\");\r\n        require(success);\r\n    }\r\n\r\n    function getAllNFTs() external view returns (TransactionStruct[] memory) {\r\n        return minted;\r\n    }\r\n\r\n    function getNFT(uint256 id) external view returns (TransactionStruct memory) {\r\n        return minted[id - 1];\r\n    }\r\n\r\n    function getAllTransactions() external view returns (TransactionStruct[] memory) {\r\n        return transactions;\r\n    }\r\n}",
  "sourcePath": "D:\\SEMPFIMAL\\src\\contracts\\DigiArtsNFT.sol",
  "compiler": {
    "name": "solc",
    "version": "0.8.11+commit.d7f03943.Emscripten.clang"
  },
  "schemaVersion": "3.4.13",
  "updatedAt": "2023-04-04T00:16:49.318Z",
  "networkType": "ethereum",
  "devdoc": {
    "kind": "dev",
    "methods": {
      "approve(address,uint256)": {
        "details": "See {IERC721-approve}."
      },
      "balanceOf(address)": {
        "details": "See {IERC721-balanceOf}."
      },
      "getApproved(uint256)": {
        "details": "See {IERC721-getApproved}."
      },
      "isApprovedForAll(address,address)": {
        "details": "See {IERC721-isApprovedForAll}."
      },
      "name()": {
        "details": "See {IERC721Metadata-name}."
      },
      "owner()": {
        "details": "Returns the address of the current owner."
      },
      "ownerOf(uint256)": {
        "details": "See {IERC721-ownerOf}."
      },
      "renounceOwnership()": {
        "details": "Leaves the contract without owner. It will not be possible to call `onlyOwner` functions anymore. Can only be called by the current owner. NOTE: Renouncing ownership will leave the contract without an owner, thereby removing any functionality that is only available to the owner."
      },
      "safeTransferFrom(address,address,uint256)": {
        "details": "See {IERC721-safeTransferFrom}."
      },
      "safeTransferFrom(address,address,uint256,bytes)": {
        "details": "See {IERC721-safeTransferFrom}."
      },
      "setApprovalForAll(address,bool)": {
        "details": "See {IERC721-setApprovalForAll}."
      },
      "supportsInterface(bytes4)": {
        "details": "See {IERC165-supportsInterface}."
      },
      "symbol()": {
        "details": "See {IERC721Metadata-symbol}."
      },
      "tokenByIndex(uint256)": {
        "details": "See {IERC721Enumerable-tokenByIndex}."
      },
      "tokenOfOwnerByIndex(address,uint256)": {
        "details": "See {IERC721Enumerable-tokenOfOwnerByIndex}."
      },
      "tokenURI(uint256)": {
        "details": "See {IERC721Metadata-tokenURI}."
      },
      "totalSupply()": {
        "details": "See {IERC721Enumerable-totalSupply}."
      },
      "transferFrom(address,address,uint256)": {
        "details": "See {IERC721-transferFrom}."
      },
      "transferOwnership(address)": {
        "details": "Transfers ownership of the contract to a new account (`newOwner`). Can only be called by the current owner."
      }
    },
    "version": 1
  },
  "userdoc": {
    "kind": "user",
    "methods": {},
    "version": 1
  }
}